:04000000BDEF06F05A
:08000800046ED8CF05F0E0CF33
:1000100006F00001E9CF0CF0EACF07F0E1CF08F0DD
:10002000E2CF09F0D9CF0AF0DACF0BF0F3CF12F01C
:10003000F4CF13F0FACF14F000C00EF001C00FF0AF
:1000400002C010F003C011F09DA02AEF00F09EB096
:10005000AFEF01F0F0A830EF00F0F0B207EF01F0E1
:100060000EC000F00FC001F010C002F011C003F08C
:100070000CC0E9FF07C0EAFF078E08C0E1FF09C016
:10008000E2FF0AC0D9FF0BC0DAFF12C0F3FF13C0B2
:10009000F4FF14C0FAFF045006C0E0FF05C0D8FF0B
:1000A0001000F2CF0DF0F29EF76ABC0FF66E000E54
:1000B000F7220900F5500DBEF28E1200280C010641
:1000C0000C455843415641544F520000486FFE675B
:1000D000656C64696E697A2E2E000C20414E303DAD
:1000E000202564002020414E313D202564000C2055
:1000F000414E323D202564002020414E333D2025D5
:1001000064000C20414E343D202564002020414EE7
:10011000353D202564000C20506F7420343D20258F
:1001200064002020506F7420353D202564000C2091
:100130004F75742064656765723D2025640020203A
:1001400059757375662062617972616D00009384E0
:1001500081A405D017B203D0020E016E57D094923D
:100160008B92C950270EC96EC730FEE3C9CF45F048
:10017000C950700EC96EC730FEE394928B8245BCA5
:1001800005D017B203D0030E016E40D094928B922B
:10019000C950610EC96EC730FEE3C950C96AC73085
:1001A000FEE3C9CF1BF0C950C96AC730FEE3C9CF0F
:1001B00024F0436A435007080FE3036A43501C0FBF
:1001C000E96E000E0320EA6EC950C96AC730FEE32B
:1001D000C9CFEFFF432AEED794928B8294928B92F1
:1001E000C950170EC96EC730FEE3C950C96AC7307F
:1001F000FEE3C9CF44F094928B8244B004D01782BE
:10020000010E016E03D01792000E016E12009FDFE7
:1002100001C042F0425202E0422C08D098DF01C0F7
:1002200042F04252FBE0422C01D0F8D7F09230EF7E
:1002300000F0EA6A420EE96EEF500EE00F0E016E1A
:10024000006A002EFED7012EFBD78F0E006E002E07
:10025000FED70000EF2EF2D71200958283A204D0C1
:100260002D2A640E426EE5DF958483A404D02D060A
:10027000640E426EDEDF958883A802D0080E2C6ED5
:10028000958A83AA02D00A0E2C6EB3EF01F0000EFD
:10029000016EC250C30B0110C26E0A0E426EC9DF5E
:1002A000C282C2B2FED7C4CF25F0140E426EC1DFA7
:1002B000040E016EC250C30B0110C26E0A0E426ED4
:1002C000B8DFC282C2B2FED7C4CF26F0140E426E8F
:1002D000B0DF080E016EC250C30B0110C26E0A0ED1
:1002E000426EA7DFC282C2B2FED7C4CF27F0140E7F
:1002F000426E9FDF0C0E016EC250C30B0110C26E26
:100300000A0E426E96DFC282C2B2FED7C4CF28F078
:10031000140E426E8EDF100E016EC250C30B011020
:10032000C26E0A0E426E85DFC282C2B2FED7C4CF51
:1003300029F0140E426E7DDF140E016EC250C30B05
:100340000110C26E0A0E426E74DFC282C2B2FED7C4
:10035000C4CF2AF0140E426E6CDFB4EF01F0060E2B
:10036000CF6ECE6A7AD793D79E9030EF00F00C52C2
:10037000656164792E2E2E0A00003FB002D08A9863
:1003800001D08A8893983FB202D08A9A01D08A8A93
:10039000939A3FB402D08A9C01D08A8C939C3FB63A
:1003A00002D08A9E01D08A8E939E00008A86939600
:1003B000070E006E002EFED700D08A96939612008C
:1003C000406A9388000E81B8010E4012938A000E95
:1003D00081BA010E006ED890003600504012938C06
:1003E000000E81BC010E006E00360036FC0E0016B9
:1003F00000504012938E000E81BE010E006E00363A
:1004000000360036F80E00160050401240C001F0D1
:1004100012009388938A938C938E8C8E959E000005
:100420008A8693960000CCDF01C03FF08A969396AF
:1004300000008A869396030E006E002EFED700D031
:10044000BFDF01C03EF08A9693969398939A939C4F
:10045000939E3F38006EF00E001600503E10016E65
:1004600038EF02F09396959C959E8C9C959CD1D7E5
:1004700001C03EF001BEFBD73C5202E18C9C01D092
:100480008C8C959C00008C9E959E00008A9693967D
:100490003D383E6E0F0E3E163EC03FF06EDF3D50C3
:1004A0000F0B3E6E3F6E69DF12009398939A939CF8
:1004B000939E9396959C959E8C9C959C8C9E959EC8
:1004C0008A969396166AF2BE168EF29E0F0E426EB2
:1004D000B0DE16BEF28E010E306E305003080EE311
:1004E000030E3F6E4ADF166AF2BE168EF29E050EAE
:1004F000426E9FDE16BEF28E302AEFD7020E3F6E9E
:100500003CDF166AF2BE168EF29E050E426E91DE3A
:1005100016BEF28E306A305003080EE3036A305084
:10052000F2CF31F0F29EBDDD31BEF28E316E3C6A0B
:100530003D6E98DF302AEFD7D8EF06F0F29CF29E9E
:10054000F2BEFDD7F088F1989384C00EF212EEEF60
:1005500006F093929380949EC69A949E9380939271
:10056000210EC66EC00EC76EF0EF06F09492938413
:10057000949494948B9494928B92C950300EC96E3B
:10058000C730FEE3C950C968C730FEE3C950C20E88
:10059000C96EC730FEE3C950C20EC96EC730FEE354
:1005A000C950C20EC96EC730FEE3C950C20EC96E33
:1005B000C730FEE394928B8294928B92C9502A0E9C
:1005C000C96EC730FEE3C950C968C730FEE3C950E1
:1005D000C20EC96EC730FEE3C950C20EC96EC73025
:1005E000FEE3C950C20EC96EC730FEE3C950C20E49
:1005F000C96EC730FEE394928B8294928B92C9505D
:100600002B0EC96EC730FEE3C95031C0C9FFC730D9
:10061000FEE3C950C20EC96EC730FEE3C950C20E18
:10062000C96EC730FEE3C950C20EC96EC730FEE3C3
:10063000C950C20EC96EC730FEE394928B82949269
:100640008B92C9502C0EC96EC730FEE3C950C96ADF
:10065000C730FEE394928B8294928B92C950210E04
:10066000C96EC730FEE3C950070EC96EC730FEE33E
:1006700094928B8294928B92C950220EC96EC7308D
:10068000FEE3C950070EC96EC730FEE394928B8219
:1006900094928B92C950230EC96EC730FEE3C950A5
:1006A000030EC96EC730FEE394928B8294928B92B4
:1006B000C950240EC96EC730FEE3C9500A0EC96E78
:1006C000C730FEE394928B8294928B92C950250E90
:1006D000C96EC730FEE3C95030C0C9FFC730FEE362
:1006E00094928B8294928B92C950260EC96EC73019
:1006F000FEE3C950070EC96EC730FEE394928B82A9
:1007000094928B92C950270EC96EC730FEE3C95030
:10071000700EC96EC730FEE394928B8294928B92D6
:10072000C950310EC96EC730FEE3C950010EC96E03
:10073000C730FEE394928B8294928B92C950320E12
:10074000C96EC730FEE3C9500A0EC96EC730FEE35A
:1007500094928B8294928B92C950330EC96EC7309B
:10076000FEE3C9500A0EC96EC730FEE394928B8235
:10077000F6EF06F0010E325E0CE3EA6A320EE96E25
:10078000EF5007E0020E006E002EFED700D0EF2ED5
:10079000F9D7120094948B9494928B92C950200EA6
:1007A000C96EC730FEE3C9500F0EC96EC730FEE3F5
:1007B00094928B82166AF2BE168EF29E020E426EE2
:1007C00038DD16BEF28E94948B84960E326ED2DF94
:1007D000F7EF06F0392C01D003D0400E3A6E01D06D
:1007E0003A6A010E385C3A263A5080093B6E3C6A00
:1007F0003D6E38DE12003750070A07E00B0A0AE0A8
:10080000060A16E0020A1AE01ED0010E386E396E92
:10081000E1DF1ED03C6A010E3D6E24DE166AF2BE98
:10082000168EF29E020E426E04DD16BEF28E10D0BF
:10083000010E386E020E396ECDDF0AD03C6A100E02
:100840003D6E10DE05D0010E3C6E37C03DF00ADE75
:1008500012000900F5520CE0F6CF30F0F7CF31F07E
:10086000F5CF37F0C8DF30C0F6FF31C0F7FFF1D762
:1008700012000900F6CF32F0F7CF33F0F5CF37F0A2
:10088000BADF32C0F6FF33C0F7FF312EF2D71200C5
:100890003850016A375C03E237C000F00CD0006AC0
:1008A000080E396E373600363850005CD8B0006E0E
:1008B0000136392EF7D71200200E32A8300E336ED3
:1008C00031C000F031AE08D0001E002A00C031F067
:1008D0002D0E336E328E3280015031C037F0640EEF
:1008E000386ED6DF00C031F0300E0124346E31C0D6
:1008F00037F00A0E386ECCDF300E0024366E300E24
:100900000124356E33C000F0300E345C04E03282D6
:1009100032BE328412D033C034F0200E336E300E2B
:10092000355C04E0328032BE328207D0D8A43280F7
:1009300004E134C035F0200E346E32B405D032B24A
:1009400006D032B007D009D033C037F054DF34C0FE
:1009500037F051DF35C037F04EDF36C037F04BDFB0
:1009600012002D50FA0FD8B0B3D0060F6AEF05F081
:10097000C00EF66E000EF76E6CDF386A020E396E2E
:1009800029DFCC0EF66E000EF76E63DFA1D0800E6D
:100990002524306EDA0EF66E000EF76E070E316EFD
:1009A00068DF30C031F0180E326E86DF386A020E12
:1009B000396E10DF800E2624306EE40EF66E000EC7
:1009C000F76E070E316E55DF30C031F0180E326E03
:1009D00073DF7ED0800E2724306EEE0EF66E000E92
:1009E000F76E070E316E45DF30C031F0180E326EF3
:1009F00063DF386A020E396EEDDE800E2824306E19
:100A0000F80EF66E000EF76E070E316E32DF30C054
:100A100031F0180E326E50DF5BD0800E2924306E1C
:100A2000020EF66E010EF76E070E316E22DF30C039
:100A300031F0180E326E40DF386A020E396ECADEAF
:100A4000800E2A24306E0C0EF66E010EF76E070E25
:100A5000316E0FDF30C031F0180E326E2DDF38D01E
:100A6000800E2924306E160EF66E010EF76E090EFA
:100A7000316EFFDE30C031F0180E326E1DDF386A85
:100A8000020E396EA7DE800E2A24306E220EF66E1C
:100A9000010EF76E090E316EECDE30C031F0180E2B
:100AA000326E0ADF15D02E0EF66E010EF76E0D0EA9
:100AB000316EDFDE2CC031F0180E326EFDDE386A8A
:100AC000020E396E87DE3E0EF66E010EF76EC1DE47
:100AD0002CEF07F0F2CF0DF0F29EE824F76AF7361C
:100AE000F90FF66E0A0EF7220A00F550FA6E0800AA
:100AF000F5500DBEF28EF96E70098E09D4091A0AEE
:100B0000600AA60AF2AE02D0178001D01790F29CBC
:100B1000F29EF2BEFDD794948B9494928B92C9501E
:100B2000270EC96EC730FEE3C950700EC96EC730BC
:100B3000FEE394928B8294928B92C950220EC96EDE
:100B4000C730FEE3C950010EC96EC730FEE3949270
:100B50008B8294928B92C950300EC96EC730FEE3DF
:100B6000C95024C0C9FFC730FEE3C950C20EC96EC8
:100B7000C730FEE3C950C20EC96EC730FEE3C9508C
:100B8000C20EC96EC730FEE3C950C20EC96EC7306F
:100B9000FEE394928B8294928B92C9502A0EC96E76
:100BA000C730FEE3C95024C0C9FFC730FEE3C950B7
:100BB000C20EC96EC730FEE3C950C20EC96EC7303F
:100BC000FEE3C950C20EC96EC730FEE3C950C20E63
:100BD000C96EC730FEE394928B8294928B92C95077
:100BE0000B0EC96EC730FEE3C950C96AC730FEE3B9
:100BF000C9CF24F0C950C96AC730FEE3C950C96AD9
:100C0000C730FEE3C950C96AC730FEE3C950C96A9C
:100C1000C730FEE394928B8294928B92C950A00EBF
:100C2000C96EC730FEE31A2AC9501AC0C9FFC730BF
:100C3000FEE3C95024C0C9FFC730FEE3306A30501C
:100C4000070810E3036A30501C0FE96E000E032002
:100C5000EA6EEFCF32F0C95032C0C9FFC730FEE3B1
:100C6000302AEDD794928B8294928B92C950200EA9
:100C7000C96EC730FEE3C9500E0EC96EC730FEE321
:100C800094928B8294948B843B0E006E002EFED740
:100C900000D094948B94196A186A938481A40DD01F
:100CA000182AD8B4192A1950160806E2FF0A03E1D7
:100CB00018507008D8A001D0F0D794928B92C950E8
:100CC000270EC96EC730FEE3C9CF31F0C950700E90
:100CD000C96EC730FEE394928B8294928B92C95076
:100CE000220EC96EC730FEE3C950070EC96EC73069
:100CF000FEE394928B8294928B92C950E10EC96E5E
:100D0000C730FEE394928B8294928B92C950200E4E
:100D1000C96EC730FEE3C9500F0EC96EC730FEE37F
:100D200094928B8294948B84960E326E23DD1950AC
:100D300016080DE2FF0A03E11850700808E217A038
:100D400002D0C00EF212F092020E016E14D031B831
:100D50000BD031AA09D017A002D0C00EF212F09227
:100D6000000E016E08D007D017A002D0C00EF212FC
:100D7000F092010E016E3DEF07F0F86AD09E078EEB
:100D800017921A6A1B6AC150C00B0F09C16E070E79
:100D9000B46E17901790186A196A1C6A1D6A1E6A49
:100DA0001F6A206A216A226A236A246A55EF02F0C8
:100DB0002D6A2C6A96908D80020E306E166AF2BEF5
:100DC000168EF29EFA0E426E19EC01F016BEF28EED
:100DD000302EF4D796908D909EEF02F0A9EF02F09E
:100DE000400E306E010E316EB6EF02F0D3D4166AAB
:100DF000F2BE168EF29E050E426E19EC01F016BE82
:100E0000F28EC050C00B0209C06EC09EC280C1509D
:100E1000C00B0909C16E2E6A6E0EF66E030EF76ED8
:100E200018DD96908D80020E306E166AF2BE168E18
:100E3000F29EFA0E426E19EC01F016BEF28E302EC2
:100E4000F4D796908D90950ECD6E060ECF6ECE6A2D
:100E50009D80C00EF21285D525C01CF026C01DF065
:100E600027C01EF028C01FF029C020F02AC021F0A2
:100E70002CC022F0080E246E45D601C02FF02E2A79
:100E8000166AF2BE168EF29E320E426E19EC01F018
:080E900016BEF28EE0D703004C
:020000040030CA
:0E00000021CE381E0087A1000FC00FE00F4078
:00000001FF
;PIC18F4550
;CRC=83D3  CREATED="17-Eki-21 18:34"
