:04000000E8EF02F033
:08000800046ED8CF05F0E0CF33
:1000100006F00001E9CF0CF0EACF07F0E1CF08F0DD
:10002000E2CF09F0D9CF0AF0DACF0BF0F3CF12F01C
:10003000F4CF13F0FACF14F000C00EF001C00FF0AF
:1000400002C010F003C011F0F2AA2AEF00F0F2B4DF
:1000500057EF00F09DA030EF00F09EB092EF00F05F
:10006000F0A836EF00F0F0B20BEF01F00EC000F098
:100070000FC001F010C002F011C003F00CC0E9FF86
:1000800007C0EAFF078E08C0E1FF09C0E2FF0AC00F
:10009000D9FF0BC0DAFF12C0F3FF13C0F4FF14C086
:1000A000FAFF045006C0E0FF05C0D8FF100000D0E2
:1000B00000D000002450255C03E395988C8803D081
:1000C00095988C9800002450265C03E3959A8C8ABE
:1000D00003D0959A8C9A00002450275C03E3959CEA
:1000E0008C8C03D0959C8C9C00002450285C03E3EE
:1000F000959E8C8E03D0959E8C9E0000010E24262A
:100100002450C80803E2010E246E06D0030E006ED0
:10011000002EFED700D00000D76A7F0ED66EF29474
:1001200036EF00F0FE0ECF6EA10ECE6E312A3350A8
:10013000315C03E29292898202D092928992322AB1
:100140003450325C03E29294898402D09294899470
:100150009E9036EF00F0938481A405D016B203D0B0
:10016000020E016E57D094928B92C950270EC96E21
:10017000C730FEE3C9CF3CF0C950700EC96EC7301E
:10018000FEE394928B823CBC05D016B203D0030EE2
:10019000016E40D094928B92C950610EC96EC730E7
:1001A000FEE3C950C96AC730FEE3C9CF1AF0C9508F
:1001B000C96AC730FEE3C9CF23F03A6A3A5007084C
:1001C0000FE3036A3A501B0FE96E000E0320EA6E3C
:1001D000C950C96AC730FEE3C9CFEFFF3A2AEED74C
:1001E00094928B8294928B92C950170EC96EC7302D
:1001F000FEE3C950C96AC730FEE3C9CF3BF0949211
:100200008B823BB004D01682010E016E03D0169291
:10021000000E016E1200929089809DDF01C028F0CF
:10022000285202E0282C18D01BC029F01CC02AF04C
:100230001DC02BF01EC02CF01FC02DF020C02EF0D2
:1002400021C030F022C030F086DF01C028F02852F3
:10025000EBE0282C01D0E8D72DC033F02DC034F0CE
:10026000295096080EE22A505A080BE22A508B08B1
:1002700008E395908C8095928C9295948C849596B9
:100280008C9629504F080EE32A505A080BE22A5048
:100290008B0808E395908C9095928C8295948C9421
:1002A00095968C862A5096080EE229505A080BE241
:1002B00029508B0808E395908C8095928C929594A8
:1002C0008C9495968C862A504F080EE329505A0834
:1002D0000BE229508B0808E395908C9095928C82C4
:1002E00095948C8495968C9692908990F09236EFA6
:1002F00000F0F29CF29EF2BEFDD7F088F198938454
:10030000C00EF21208EF03F093929380949EC69A67
:10031000949E93809392210EC66EC00EC76E09EF15
:1003200003F094929384949494948B9494928B92EB
:10033000C950300EC96EC730FEE3C950C968C73016
:10034000FEE3C950C20EC96EC730FEE3C950C20EEB
:10035000C96EC730FEE3C950C20EC96EC730FEE396
:10036000C950C20EC96EC730FEE394928B8294923C
:100370008B92C9502A0EC96EC730FEE3C950C968B6
:10038000C730FEE3C950C20EC96EC730FEE3C95084
:10039000C20EC96EC730FEE3C950C20EC96EC73067
:1003A000FEE3C950C20EC96EC730FEE394928B8241
:1003B00094928B92C9502B0EC96EC730FEE3C95080
:1003C00038C0C9FFC730FEE3C950C20EC96EC7307E
:1003D000FEE3C950C20EC96EC730FEE3C950C20E5B
:1003E000C96EC730FEE3C950C20EC96EC730FEE306
:1003F00094928B8294928B92C9502C0EC96EC73006
:10040000FEE3C950C96AC730FEE394928B8294928E
:100410008B92C950210EC96EC730FEE3C950070E3A
:10042000C96EC730FEE394928B8294928B92C9502E
:10043000220EC96EC730FEE3C950070EC96EC73021
:10044000FEE394928B8294928B92C950230EC96ED4
:10045000C730FEE3C950030EC96EC730FEE3949265
:100460008B8294928B92C950240EC96EC730FEE3E2
:10047000C9500A0EC96EC730FEE394928B829492E3
:100480008B92C950250EC96EC730FEE3C95037C0E4
:10049000C9FFC730FEE394928B8294928B92C9502D
:1004A000260EC96EC730FEE3C950070EC96EC730AD
:1004B000FEE394928B8294928B92C950270EC96E60
:1004C000C730FEE3C950700EC96EC730FEE3949288
:1004D0008B8294928B92C950310EC96EC730FEE365
:1004E000C950010EC96EC730FEE394928B8294927C
:1004F0008B92C950320EC96EC730FEE3C9500A0E46
:10050000C96EC730FEE394928B8294928B92C9504D
:10051000330EC96EC730FEE3C9500A0EC96EC7302C
:10052000FEE394928B820EEF03F0EA6A380EE96ED6
:10053000EF500EE00F0E016E006A002EFED7012E66
:10054000FBD78F0E006E002EFED70000EF2EF2D7E5
:100550001200010E375E0CE3EA6A370EE96EEF50C7
:1005600007E0020E006E002EFED700D0EF2EF9D766
:10057000D2EF02F094948B9494928B92C950200EF7
:10058000C96EC730FEE3C9500F0EC96EC730FEE317
:1005900094928B82020E386EC8DF94948B84960EF0
:1005A000376ED7D70FEF03F03850016A375C03E29C
:1005B00037C000F00CD0006A080E396E37360036AE
:1005C0003850005CD8B0006E0136392EF7D71200D3
:1005D000F86AD09E078E1692196A1A6A010E246E66
:1005E000316A326A336A346AC150C00B0F09C16E76
:1005F000070EB46E16901690176A186A1B6A1C6A6A
:100600001D6A1E6A1F6A206A216A226A236A71D6DD
:100610007BD6400E376E080E386E83D6ABD7000EF1
:10062000926E926A896A366A356A355002080BE31F
:10063000036A3550250FE96E000E0320EA6E0F0E97
:10064000EF6E352AF2D7C20ED56ED76A7F0ED66E00
:10065000F28AC00EF2120B0E256E0D0E266E9590CC
:100660008C9095928C9295948C9495968C9692966B
:100670008986040E376EFA0E386E57DF372EFBD799
:10068000929689963A0ECF6EBB0ECE6E850ECD6ECB
:100690009D80C00EF2122B50320807E22BC037F0BB
:1006A0000A0E386E81DF01C025F02C50320807E2B7
:1006B0002CC037F00A0E386E77DF01C026F02E50BE
:1006C000320807E22EC037F00A0E386E6DDF01C027
:1006D00027F03050320807E230C037F00A0E386E8B
:1006E00063DF01C028F030500A080BE1929689863A
:1006F000040E376EFA0E386E18DF372EFBD792963F
:060700008996C9D7030031
:020000040030CA
:0E00000021CE381E0087A1000FC00FE00F4078
:00000001FF
;PIC18F4550
;CRC=8448  CREATED="17-Eki-21 17:44"
